:020000040000fa
:080000000002040000000000f2
:020000040000fa
:0400080000050000ef
:020000040000fa
:04000c0000050000eb
:020000040000fa
:0400100000050000e7
:020000040000fa
:0400140000050000e3
:020000040000fa
:0400180000050000df
:020000040000fa
:04001c0000050000db
:020000040000fa
:0400200000050000d7
:020000040000fa
:0400240000050000d3
:020000040000fa
:0400280000050000cf
:020000040000fa
:04002c0000050000cb
:020000040000fa
:0400300000050000c7
:020000040000fa
:04003400d4020000f2
:020000040000fa
:0400380000050000bf
:020000040000fa
:04003c0000050000bb
:020000040000fa
:0400400000050000b7
:020000040000fa
:040044004203000073
:020000040000fa
:040048007c03000035
:020000040000fa
:04004c0000050000ab
:020000040000fa
:0400500000050000a7
:020000040000fa
:040054009a0400000a
:020000040000fa
:04005800000500009f
:020000040000fa
:04005c00000500009b
:020000040000fa
:040060000005000097
:020000040000fa
:040064000005000093
:020000040000fa
:04006800000500008f
:020000040000fa
:04006c00000500008b
:020000040000fa
:040070000005000087
:020000040000fa
:040074000005000083
:020000040000fa
:04007800000500007f
:020000040000fa
:04007c00000500007b
:020000040000fa
:040080000005000077
:020000040000fa
:040084000005000073
:020000040000fa
:04008800000500006f
:020000040000fa
:04008c00000500006b
:020000040000fa
:040090000005000067
:020000040000fa
:04009400ae030000b7
:020000040000fa
:04009800240400003c
:020000040000fa
:04009c00000500005b
:020000040000fa
:0400a000cc0400008c
:020000040000fa
:0400a400ee04000066
:020000040000fa
:0400a800000500004f
:020000040000fa
:0400ac00000500004b
:020000040000fa
:0400b0000005000047
:020000040000fa
:0400b4000005000043
:020000040000fa
:0400b800000500003f
:020000040000fa
:0400bc00000500003b
:020000040000fa
:0400c0000005000037
:020000040000fa
:0400c4000005000033
:020000040000fa
:0400c800000500002f
:020000040000fa
:0400cc00000500002b
:020000040000fa
:0400d0000005000027
:020000040000fa
:0400d4000005000023
:020000040000fa
:0400d800000500001f
:020000040000fa
:0400dc00000500001b
:020000040000fa
:0400e0000005000017
:020000040000fa
:0400e4000005000013
:020000040000fa
:0400e800000500000f
:020000040000fa
:0400ec00000500000b
:020000040000fa
:0400f0000005000007
:020000040000fa
:0400f4000005000003
:020000040000fa
:0400f80000050000ff
:020000040000fa
:0400fc0000050000fb
:020000040000fa
:0401000000050000f6
:020000040000fa
:0401040000050000f2
:020000040000fa
:0401080000050000ee
:020000040000fa
:04010c0000050000ea
:020000040000fa
:040110005204000095
:020000040000fa
:0401140000050000e2
:020000040000fa
:0401180000050000de
:020000040000fa
:04011c0000050000da
:020000040000fa
:0401200000050000d6
:020000040000fa
:0401240000050000d2
:020000040000fa
:0401280000050000ce
:020000040000fa
:04012c0000050000ca
:020000040000fa
:0401300000050000c6
:020000040000fa
:0401340000050000c2
:020000040000fa
:0401380000050000be
:020000040000fa
:04013c0000050000ba
:020000040000fa
:0401400000050000b6
:020000040000fa
:0401440000050000b2
:020000040000fa
:0401480000050000ae
:020000040000fa
:04014c0000050000aa
:020000040000fa
:0401500000050000a6
:020000040000fa
:04015400760400002d
:020000040000fa
:04015800000500009e
:020000040000fa
:04015c00000500009a
:020000040000fa
:040160000005000096
:020000040000fa
:040164000005000092
:020000040000fa
:0402080000050000ed
:020000040000fa
:04020c0000050000e9
:020000040000fa
:0402100000050000e5
:020000040000fa
:0402140000050000e1
:020000040000fa
:0402180000050000dd
:020000040000fa
:04021c0000050000d9
:020000040000fa
:0402200000050000d5
:020000040000fa
:0402240000050000d1
:020000040000fa
:0402280000050000cd
:020000040000fa
:04022c0000050000c9
:020000040000fa
:0402300000050000c5
:020000040000fa
:04023400d4020000f0
:020000040000fa
:0402380000050000bd
:020000040000fa
:04023c0000050000b9
:020000040000fa
:0402400000050000b5
:020000040000fa
:040244004203000071
:020000040000fa
:040248007c03000033
:020000040000fa
:04024c0000050000a9
:020000040000fa
:0402500000050000a5
:020000040000fa
:040254009a04000008
:020000040000fa
:04025800000500009d
:020000040000fa
:04025c000005000099
:020000040000fa
:040260000005000095
:020000040000fa
:040264000005000091
:020000040000fa
:04026800000500008d
:020000040000fa
:04026c000005000089
:020000040000fa
:040270000005000085
:020000040000fa
:040274000005000081
:020000040000fa
:04027800000500007d
:020000040000fa
:04027c000005000079
:020000040000fa
:040280000005000075
:020000040000fa
:040284000005000071
:020000040000fa
:04028800000500006d
:020000040000fa
:04028c000005000069
:020000040000fa
:040290000005000065
:020000040000fa
:04029400ae030000b5
:020000040000fa
:04029800240400003a
:020000040000fa
:04029c000005000059
:020000040000fa
:0402a000cc0400008a
:020000040000fa
:0402a400ee04000064
:020000040000fa
:0402a800000500004d
:020000040000fa
:0402ac000005000049
:020000040000fa
:0402b0000005000045
:020000040000fa
:0402b4000005000041
:020000040000fa
:0402b800000500003d
:020000040000fa
:0402bc000005000039
:020000040000fa
:0402c0000005000035
:020000040000fa
:0402c4000005000031
:020000040000fa
:0402c800000500002d
:020000040000fa
:0402cc000005000029
:020000040000fa
:0402d0000005000025
:020000040000fa
:0402d4000005000021
:020000040000fa
:0402d800000500001d
:020000040000fa
:0402dc000005000019
:020000040000fa
:0402e0000005000015
:020000040000fa
:0402e4000005000011
:020000040000fa
:0402e800000500000d
:020000040000fa
:0402ec000005000009
:020000040000fa
:0402f0000005000005
:020000040000fa
:0402f4000005000001
:020000040000fa
:0402f80000050000fd
:020000040000fa
:0402fc0000050000f9
:020000040000fa
:0403000000050000f4
:020000040000fa
:0403040000050000f0
:020000040000fa
:0403080000050000ec
:020000040000fa
:04030c0000050000e8
:020000040000fa
:040310005204000093
:020000040000fa
:0403140000050000e0
:020000040000fa
:0403180000050000dc
:020000040000fa
:04031c0000050000d8
:020000040000fa
:0403200000050000d4
:020000040000fa
:0403240000050000d0
:020000040000fa
:0403280000050000cc
:020000040000fa
:04032c0000050000c8
:020000040000fa
:0403300000050000c4
:020000040000fa
:0403340000050000c0
:020000040000fa
:0403380000050000bc
:020000040000fa
:04033c0000050000b8
:020000040000fa
:0403400000050000b4
:020000040000fa
:0403440000050000b0
:020000040000fa
:0403480000050000ac
:020000040000fa
:04034c0000050000a8
:020000040000fa
:0403500000050000a4
:020000040000fa
:04035400760400002b
:020000040000fa
:04035800000500009c
:020000040000fa
:04035c000005000098
:020000040000fa
:040360000005000094
:020000040000fa
:040364000005000090
:020000040000fa
:10040000cffe21000e7f24000e01880000000000b6
:10041000000020000000e000020032000001200087
:100420002002880014000700ec0107000000e00033
:1004300003003a0080062e00010020000200370071
:100440000000200001002000810f70000100320038
:1004500014000700000020000000e000020032004d
:10046000000002000000000036ef02000000000063
:100470000040da000000fe004440a900a077200000
:100480000000e0000300320000002000a00188000e
:100490004440a800000006008a1f78008b1f7800e7
:1004a0000000060091018800800478000000eb0045
:1004b0001a003700e284440032a0b4009905ba0063
:1004c000e284440032a0b4009906ba00e2844400f9
:1004d00032a0b4000006eb00476fde00fd07b2005b
:1004e000636ce10003003a00ebff07000000eb0043
:1004f0000a003700606ce10004003a00005deb0088
:100500008b05e900fdff3e00040037006168e10053
:10051000010032000086eb000b00070019c7ba008b
:100520001905ba000e04e00003003a000a00e000da
:10053000e0ff3a0000000600fe07b2009e018800be
:100540008a047800f5ff3700395dba008b05e900b1
:100550000c003200295dba008b05e900080032006a
:100560000c00e00003003a00e284440032a0b40032
:10057000f5ff370019ddba008b05e900faff3a00f4
:100580008904e800e184440032a0b40000000600c1
:100590005e1e040000000000bc31040000000000ea
:1005a00000000400000000003600f800809fbe003c
:1005b000829fbe00849fbe00869fbe000000fa009e
:1005c0008460a900e0540700805980006100600049
:1005d0000000e00001003200794d0700b05e8000ad
:1005e0004f00de00004078000004e0001e003200f2
:1005f000a05e8000b25e80008200780001f0a10061
:1006000065004000e0804800f2ff2f00f3ff270064
:1006100080027800810078000202780003007800f0
:1006200004826200008060008000eb00c000dd00fa
:10063000000020000001be006120b8000001710030
:10064000818171000200be00a05e88000100780078
:1006500000f0a100b25e800001002800810061006e
:1006600001007000b05e88000080fa004f03be00f9
:100670004f02be004f01be004f00be003600f90021
:10068000004006003600f800809fbe00829fbe003a
:10069000849fbe00869fbe000000fa0084e0a9008f
:1006a000d4720700e05e8000e10f50000a003a00bb
:1006b000a05f80000000e800a05f8800a15f8000cc
:1006c00060092000808f500004003600600920007f
:1006d000a05f880001003700f42bef000080fa00d3
:1006e0004f03be004f02be004f01be004f00be00d0
:1006f0003600f900004006003600f800809fbe007a
:10070000829fbe00849fbe00869fbe000000fa004c
:1007100013e1a900b7750700e0e421001080fb0099
:100720004500de00614060000004e000010032008e
:100730009d7407000a21ef008500a90013e1a800bd
:100740000080fa004f03be004f02be004f01be0002
:100750004f00be003600f900004006003600f800e9
:10076000809fbe00829fbe00849fbe00869fbe0009
:100770000000fa00a05e8000b25e80008200780077
:1007800001f0a100f269280013002000820f500040
:10079000838f580022003600d2a2a9009460a900dd
:1007a00094e0a9009500a9009760a9009780a9008e
:1007b0009b40a9009d60a900c2e2a90005e1a90033
:1007c00011e1a90013e1a9001fe1a9006022b8000e
:1007d0006033b8000040eb00177307006022b800d8
:1007e0006033b80010c0b300137307006022b80074
:1007f0006033b80020c0b3000f730700910580007c
:10080000000027000100700090058800910580001d
:10081000007020000100700090058800ffff370085
:10082000e0e421001080fb008760a9000080fa004e
:100830004f03be004f02be004f01be004f00be007e
:100840003600f900004006003600f800809fbe0028
:10085000829fbe00849fbe00869fbe000000fa00fb
:1008600021e1a900e0e421009040780061c060002f
:100870000004e000010032009a5607001821ef0042
:100880008780a90021e1a8000080fa004f03be0084
:100890004f02be004f01be004f00be003600f900ff
:1008a00000400600809fbe000000fa008b40a900b7
:1008b000010f800000802000008060000000e00048
:1008c00004003200a7cbbf000040e800a7ebb70050
:1008d00003003700a7cbbf000040e900a7ebb7003b
:1008e0000080fa004f00be0000400600809fbe005e
:1008f0000000fa008d60a900810f800000802000b8
:10090000008060000000e00004003200a8cbbf00bf
:100910000040e800a8ebb70003003700a8cbbf00f9
:100920000040e900a8ebb7000080fa004f00be00cd
:10093000004006003600f800809fbe00829fbe0087
:10094000849fbe00869fbe000200fa009560a90049
:100950008560a90030118000004f7800e0e421009c
:100960009040780061c060000004e00002003200a6
:100970001e407800085607009560a8000080fa0025
:100980004f03be004f02be004f01be004f00be002d
:100990003600f900004006003600f800809fbe00d7
:1009a000829fbe00849fbe00869fbe000000fa00aa
:1009b00097c0a90087c0a9003566070097c0a800a6
:1009c0000080fa004f03be004f02be004f01be0080
:1009d0004f00be003600f90000400600801f78007e
:1009e0000000fa0087e0a90090d2800000f0a0008b
:1009f00090d288000080fa004f0078000040060086
:100a00000040da000000fe000a00fa001100200099
:100a1000b1bf9f00c0bf9f006a8057008f1d0700b5
:100a20004fb897000080fa00000006000a00fa00a4
:100a3000e20f500034003e0040ff8000e10f500004
:100a400003003200e20f500011003a000c003700a2
:100a5000032220000300e00001003a000040da0019
:100a60002002e200020035002822ef0021e2a80067
:100a70002342ab000d003a002342a8000b003700d0
:100a8000032320000300e00001003a000040da00e8
:100a90003002e200020035003822ef0031e2a80007
:100aa0003342ab0001003a003342a80082017800d3
:100ab0000b0037003102fb00e10f500004003a0048
:100ac0002322ab00feff3a00241188000300370008
:100ad0003322ab00feff3a00a41188008301e90035
:100ae0000300e000f3ff3a00e10f500003003a007a
:100af0002302ab00feff32000b0037003302ab00d5
:100b0000feff32000800370033002000b3bf9f0013
:100b1000c0bf9f00d1bf9f00e2bf9f006a80570007
:100b2000501d07006fb99700020078000080fa009e
:100b3000000006000a00fa0051002000b1bf9f002b
:100b4000c0bf9f006a805700481d07005fb897002c
:100b50000080fa0000000600889fbe008004780034
:100b600050ff80000000e00004003a000e00070083
:100b70000084eb000000e0000800350058ff800012
:100b80000900e000050032000900440006000700eb
:100b90000000e00001003d000084eb000800780048
:100ba0004f04be0000000600800078000100e00055
:100bb00003003a000000200050ff880000000500fc
:100bc0000080eb0002002000828f500002003e00f7
:100bd00051ff88000000eb00000006000000050047
:100be0002800fa00889fbe008a9fbe008c9fbe002e
:100bf00007067800878669000c003b000304780034
:100c00008704780008f0a10009f0a100840f5000cb
:100c1000858f5800860f5900890f5c000300330050
:100c20000cf0a20001003a000cf0a100a2010700a4
:100c30006400e1005f003200780147006408e100d1
:100c4000610032006c014700748557003200be001d
:100c50001201be003a04be001a05be001e03900039
:100c6000be0a90008503530006003d000004fd000d
:100c70008104fd000205fd008305fd008703ea00f5
:100c8000050378000df8a30004003200600414008e
:100c9000e0841c0060051d00e0851d006022b80096
:100ca0007d0320000d38e1008006eb000b003900c9
:100cb0004433dd00f300b2008301730039003700d4
:100cc000848272000d027800e10664008b85d100f9
:100cd0000a85d3008984d3000884d3008703e90000
:100ce000f7ff3b0008004000898048000a014900e6
:100cf0008b81490004003b0060001000e080180078
:100d000060011900e08119000358a30009003200b6
:100d10008d82720084827200610260008301d100c2
:100d20000281d3008180d3000080d3000603e80055
:100d30001b0037000348a30017003a000600e0003c
:100d4000170034000603e9000d00a300000048006e
:100d50008180480002014900838149000348a300c3
:100d60000f003a000600e000090034000603e90025
:100d70000000400081804800020149008381490051
:100d800001003a000003eb000348a300f5ff320026
:100d90006022b8000200370084827200618266001f
:100da0000701070003f0a1000cf0a70003f0a0006a
:100db00055013700640147006408e10002003a0071
:100dc0000df8a3004d013a003200be001201be0032
:100dd0004d0137000000000003f0a200889fbe0014
:100de0008a9fbe008c1f78006002070067023300f4
:100df0006450e1004f0032006420e10052003200f4
:100e000003826c0007003b000905d0000306d000f8
:100e1000820f54000c065d0002003900020032000f
:100e200089017800030678008582550004003d00a2
:100e30000003fd008103fd008502ea008b8542006e
:100e4000840f720002003b0060001000e080180078
:100e50006011b8000005eb007a28e1000a003900b3
:100e600006007800c75ddd00f707b20087807500d7
:100e70002d003700828171000a0178006105600051
:100e80008180d1000080d3008502e900f9ff3b009a
:100e9000060440008784480002003b006004140000
:100ea000e0841c000988a300070032008a817100d9
:100eb00082817100610164008904d1000884d3003b
:100ec0008b05e800170037000978a30013003a00eb
:100ed0000b00e000130034008b05e9000804440017
:100ee00089844c000a4474000978a3000d003a007c
:100ef0000b00e000070034008b05e9000804440003
:100f000089844c0001003a000b0020000978a300fe
:100f1000f7ff32000001eb00020037008281710010
:100f20000a017800d60107000cf0a70001f0a0002c
:100f30001f0237006420e10002003a00838f6c003a
:100f40001f0233000801be000200be001802370075
:100f50000000fa00889fbe008a9fbe008c9fbe00e2
:100f60000404be000605be00c100070004067800a8
:100f70000c78a30020003a000800fd008900fd0065
:100f80000a01fd008b01fd00b9000700840678000e
:100f90000d78a30018003a000d0666006460e100b9
:100fa000190032006160e100170032000002be004b
:100fb0000203be000a01be000800be00070478005c
:100fc0002000070003f0a1000205070008f0a600ba
:100fd0000600370003f0a20097002400b61f22008d
:100fe0004544250084d12200fdfe07000bf0a70038
:100ff00003f0a200c40037001802200098618800a6
:101000000330a000c000370018022000986188005b
:10101000ba0037000002eb00990237008f1fd100a1
:10102000a20507008f87e9000000e000000006002d
:10103000809feb009d0507008f87e9000000e0001e
:10104000000006002800fa00889fbe008a9fbe00ac
:101050008c9fbe0003866b00970007006400e100d0
:10106000440032006408e1004a0032006100e100ff
:10107000460032006108e10049003200ec064700fa
:101080006000b8003d02be003d03be00f48657007c
:101090006011b8003d04be003d05be007d03200088
:1010a0000b0037000000a0008d06e900130032009d
:1010b0000402420085824a0006034b0087834b00ee
:1010c00000004000818048000201490083814900fe
:1010d0000802520089825a000a035b008b835b007e
:1010e000f0ff3b000802420089824a000a034b00dd
:1010f0008b834b008d06e900edff3a00848272007d
:1011000086827200f707b200878272000100320007
:10111000150020001e0490003e0b900006035400b2
:10112000e63fb0000368a300070032000000a700fc
:101130000500a0008301d1000281d3008180d3008b
:101140000080d3000603e8008301d1000281d300b0
:101150008180d3000080d3000002eb000482d20023
:101160001700070003f0a1000cf0a70003f0a00097
:1011700065003700640247006408e1005f00320048
:101180003400be003401be00f6ff37006108e10004
:101190005a0032006011b8006000b800f1ff37005b
:1011a00003ff270002002000fbff3700801feb0039
:1011b0003e0507008f87e9000000e0000000060000
:1011c0001800200057002000080453000d003d00c7
:1011d0000600200097fc2f000740e1001e003400ad
:1011e00084827200610260008301d1000281d30019
:1011f0008180d3000080d3000804e800f8ff3a00a3
:1012000047002000610460000504740004046400c9
:101210000d00320061004000e0804800600149009c
:10122000e081490003b8a500070032000603e8008a
:101230006538e10004003a008301d1000281d30047
:101240008180d3000080d300f87f20000830e100c7
:1012500003003500080378006000b8006011b80092
:101260004433dd00f300b200830173000000060088
:1012700005ff270005826100070032000428e10015
:1012800001003200240005000600070001003a00ba
:10129000440005000408050002000700f9ff3a00b9
:1012a000140005006f8261008102700085027100e8
:1012b0008502720000000600680447000294be0028
:1012c0000094be00fc0447008694be008494be00d7
:1012d000090078002c050700080078002a0507009f
:1012e00099007800814f70000b003b000800be00a1
:1012f000170507004f00b10003003700f3ff270078
:10130000f2ff2f006110b9004f06be004f05be006e
:101310004f04be000080fa00000006008103780040
:10132000fd0007000001be006000b8000478a300c3
:1013300013003a006220e10015003e000d00390064
:101340008301d1000281d3008180d3008301d100c9
:101350000281d3008180d3008301d1000281d300b8
:101360008180d3000538b000c42add00f300b2004c
:101370008381720007f0a70003f0a00000000600c0
:10138000f3ff2700f2ff2f006110b900fbff3700c9
:1013900003ff2700f7ff3700140020002105370066
:1013a000f4ff2f001f0537001400fa00889fbe00cd
:1013b0008a9fbe008c9fbe000004be000205be00d6
:1013c000680047000a90be000890be00ee040700c7
:1013d0000070a7000bf0a100304320009e02900097
:1013e00080825200b0fe2f000028e10011003d0075
:1013f000b0fc2f000028e100150034001e09900009
:101400008e0890007e0090000501b0000201d1001e
:101410008180d3000080d3008502e800fbff3a0002
:101420000b00e000b8ff3b0060001000e0801800f7
:10143000b5ff3700f0ff2f00f1ff27000b00e000a1
:10144000b1ff3b000100280000002000aeff370084
:101450006000b800acff37000001be00ae0007001e
:101460000470a70003f0a1006509b1001600320066
:101470000d0035006828e10006003500f0ff2f0060
:10148000f1ff27000300e00013003b0001002800eb
:101490000000050000004000818048008502e9004e
:1014a000fcff3a0008003700f88f420002003c00c1
:1014b0008000eb00000005008100d1000080d30017
:1014c0008502e800fcff3a000300e00002003b0058
:1014d00060001000e0801800000006001400fa0010
:1014e000889fbe008a9fbe008c9fbe000004be0085
:1014f0000205be00680047000a90be000890be00ca
:10150000a10407000070a7000bf0a1000bf8a300d6
:1015100016003a009e029000304320008082520064
:10152000b0fe2f000028e1000d003c00b0fc2f00b1
:101530000028e1000d0034001e0990008e08900084
:101540007e0090000501b0000201d1008180d3002f
:101550000080d3008502e800fbff3a006aff3700f5
:10156000010028000000200067ff37006000b8007d
:1015700065ff3700881f7800030478000300e0004f
:1015800007003d0060001000e080180060011900b5
:10159000e081190002003b0001f02d00030037003c
:1015a0000a00070008f0a70003f0a0004f0478002d
:1015b000000006004f89de0082017800edff370051
:1015c0004f89de0082017800b1043700889fbe0099
:1015d0000082700004027100048271002400320055
:1015e00036432000c50020008383cf000a00390065
:1015f0000541b1008283cf00070039000541b100e9
:101600008183cf00040039000541b1008083cf0001
:10161000010039000541b10085c353006022b800c4
:10162000120032000a003b008482720061026000f6
:101630008301d1000281d3008180d3000080d300d8
:101640000603e8008743e800f7ff3a000700370089
:101650000000400081804800020149008381490068
:101660000603e9008743e900f9ff3a00d4fe0700ca
:101670004f04be00000006006011b800d3ff370021
:1016800081002000618055000b003d000b00200010
:1016900061fe2f000100e1001d0034008281710015
:1016a000610164008904d1000884d3000000e800cf
:1016b000faff3a007100200061006400030070002e
:1016c000020060000900320061044400e0844c0024
:1016d0000988a500050032008b05e8006808e100d4
:1016e00002003a008904d1000884d300f20f2000e0
:1016f0000258e10005003d00c75ddd00f907b200ba
:101700008980750008007800000006000bf82700ab
:101710008b00780000000500c70ade00f107b20068
:10172000f50fb20008003200e1cf420002003200a3
:101730000170a00024000500810f7000010032003c
:101740000408050044000500810f700002003a0003
:10175000140005008502e9000000400081c0480037
:10176000fcff3b000170a000240005000004be0047
:10177000e9ff07000003be000405be000200be0032
:10178000e5ff0700844f7500000006000200be0060
:101790006450e100050036006420e10002003600dc
:1017a0000968a30001003a000800be000160a00023
:1017b0004f0678004f05be004f04be000000060033
:1017c000f0ff2f00f1ff2700f9ff370000000000b5
:1017d0002800fa00889fbe008a9fbe008c9fbe0032
:1017e00003866b00b4fe07000028a30064003a00e3
:1017f0000128a30067003a000008a30062003a0035
:101800000108a30065003a001e009000be08900089
:1018100081064000ed3fb100f4805700ee019000da
:10182000111ab8008e099000311bb8009e09900073
:10183000311cb800511db800f48557004600070060
:10184000fe0190003a0007008b85e8003e0007008b
:101850008e09900040000700ee0190003400070060
:101860008b85e800380007008e09900040000700d3
:101870009e0990001b18b800890440000a854800a2
:10188000fe019000340007008b85e8003800070057
:10189000ee019000300007008e0990001b18b80080
:1018a000890440000a8548000a98a30008003a000d
:1018b0000402420085824a0006034b0087834b00e6
:1018c00008044c0089844c000a054d008d06e9008f
:1018d00084827200850273004c3add00850272003a
:1018e0000100320015002000443ade001400b2006e
:1018f0004538de00cb45dd000b007000c540de0042
:10190000cb4ddd008b8070004549de00cb55dd00fe
:101910000b017100c551de000d03780028fe0700a1
:1019200003f0a1000cf0a70003f0a00076fe370042
:101930001b18b8008502400006834800e0834b0076
:1019400060044c00070037001b18b8000603400075
:1019500087834800faff37001b18b8008703400050
:1019600008844800e0844c0060054d00000006003b
:101970001b18b8000804400089844800faff3700ab
:101980000108a3005dfe3a005800be005801be00e9
:10199000e3ff37000008a30058fe3a00090478006e
:1019a000f9ff370000000000889fbe008a9fbe003c
:1019b0008c1f78006dff070074ff330003866c00f6
:1019c0006450e100240032006420e100270032006e
:1019d0006150e100220032006120e100210032006c
:1019e0008b854200eb07b1000134b800003ab80023
:1019f0000804420089844a00013ab8000030b80067
:101a00008880400009014a000400330000004000c3
:101a100081804800020149008b05e900c909dd0009
:101a2000830170000100320013002000c814de00a2
:101a30004814dd004709de001200b200c808de00cd
:101a4000088470000eff070001f0a1000cf0a70051
:101a500001f0a00056ff37006120e10058ff32007e
:101a60000801be000200be00f7ff37006150e10030
:101a7000fcff3a0052ff370014002000000037003e
:101a80000800fa00889fbe008a9fbe008c9fbe009f
:101a9000040678000004be000205be00f4fd070045
:101aa0006420e1009f003e009b0032006120e100c5
:101ab0009600320003f0a100171b240036582c00ba
:101ac00005a021000400200054fd07000800be000e
:101ad0000a01be000700350097012400b61f22004e
:101ae0004544250084d12200a80307000004be005d
:101af0000205be008006eb000c00a700cf1ede0032
:101b000003f0a1000bf0a10047fd230006f3250020
:101b100095dc260034882c002dff07006022b800d9
:101b20000003eb0007fe23000c00a60007ff2300c4
:101b30002bfc07001cfe07000000a7000d00a20000
:101b40009cfe07000c00e00004003a0007fe2300a2
:101b5000060020006022b800c600070003f0a200c3
:101b6000009fbe000297be009700240006002200de
:101b70006022b80016ff07000802be000a03be007c
:101b800017fc0700809fbe00829fbe003e00be0083
:101b90002e01be00f7f4230046542b00152d24001f
:101ba000a44628000aff07004f03be004f02be00f4
:101bb0000bfc07000004be000205be0003f0a100fc
:101bc00067e42300e6092a00f5672600d4bc230059
:101bd00012fd07000800be000a01be0048003500e3
:101be0000002be000203be00f9fe0700009fbe0017
:101bf0000297be0087ce2300f60f280035992600f5
:101c000054f92d00f2fe0700a7d62b0006422e0045
:101c100085c02d00c4992400f1fb07003e02be00e0
:101c20002e03be00eafe070067de2300c623210064
:101c3000a586260004432d00e9fb07003e02be00f6
:101c40002e03be00e2fe0700a7e52b0056642e001f
:101c5000d5b52400b40a2c00e1fb07003e02be000b
:101c60002e03be00dafe070077ec230036de2100eb
:101c700045522a0034062f00d9fb07003e02be0061
:101c80002e03be00d2fe0700a7f22b00061a20008a
:101c900015a02100a4e12300d1fb07003e02be00f5
:101ca0002e03be00cafe070017f8230016112100fc
:101cb00015112100040b2100c9fb07003e02be00e4
:101cc0002e03be00c2fe070057fc2b005655250010
:101cd0005555250054552500c1fb07003e02be00a6
:101ce0002e03be00bafe07000802be000a03be00b3
:101cf000b7fe07000802be000a03be00b8fb0700db
:101d00000d00a70003f0a2007ffd37000c00a60025
:101d100003ff23007cfd3700f3ff2700f2ff2f00b5
:101d20006110b9000330a000140220009461880003
:101d300075fd37001400fa00889fbe008a9fbe0020
:101d40008c9fbe000004be000205be006800470074
:101d50000a90be000890be008b0207000078a30026
:101d60003d003a006100e1003c0032000bf8a300a6
:101d70003d003a006400e100380032006c03470087
:101d80001e009000f03fb1003602be001603be00f8
:101d90000008a300040032000402420085824a00c9
:101da00006034b0087834b00100798008e1f7800b6
:101db0006000b8006011b8005c0020006d012000d8
:101dc0006e002000020037008d86e900fc00200034
:101dd0000402420085824a0006034b0087834b00c1
:101de00000044000818448000205490083854900c1
:101df0006060e1001d60ad000804520089845a0053
:101e00000a055b008b855b00030039001e60ad0096
:101e10000802be000a03be000c06e900ecff3b000e
:101e20000e87e900e8ff3b004f0778006102600081
:101e3000840278008301d1000281d3008180d30025
:101e40000080d3001e03900041b3de00f63fb000d7
:101e5000dbfc07002cfd37000b30a0000800be00a3
:101e60000a01be0028fd370012022000926188009e
:101e700022fd370007f0a20059fb37001400fa00da
:101e8000889fbe008a9fbe008c9fbe000005be00da
:101e90000206be00680047000c90be000a90be001b
:101ea000390207006400e1001a00320016003e000b
:101eb0006100e1001a0032006e049000fe04900000
:101ec0000e0b90009e0b90006011b8009e059000d4
:101ed0000b38b100d50120008281710061016400de
:101ee0008703d1000683d3008984d3000884d300fc
:101ef0008502e900f8ff3a00e1fd07000df0a700b8
:101f000001f0a00000fd3700f1ff2700f0ff2f00d7
:101f1000fdfc370001f8270000002000f7ff370024
:101f20006000b800f5ff3700889fbe008a9fbe00a2
:101f300030044200b0844a0030054b0090854b00cd
:101f40006000b1000898be000a90be000440e100a5
:101f500005c8e10006d0e10007d8e1000200310029
:101f6000680040001008e8004f05be004f04be00a6
:101f700000000600889fbe008a9fbe003004be009d
:101f80002005be000418540005985c0006185d008a
:101f900007985d00110020000440e10005c8e10041
:101fa00006d0e10007d8e100010039008000eb0015
:101fb000108810004f05be004f04be000000060050
:101fc0001200fa00889fbe008a9fbe008c9fbe0050
:101fd000e0b79f00f1b79f0082bf9f0093bf9f00b3
:101fe0000605be000404be000000eb00d0b79f0051
:101ff000c0b79f00b0b79f00a0b79f0090b79f00e9
:10200000000678005fb19700cfb0970082014100d1
:102010003fb097000200e00004003d0037000700d9
:102020007e805700c0ff0700030037003300070021
:102030007e805700cfff0700dfb697000d00e0005d
:102040000c0035006fb29700ffb297000fbb9700ee
:102050009fbb970010002000010020006011b80015
:102060000002720081827200020373008383730096
:102070001b0007000c06e80001042000810f560039
:10208000e0ff3a000d00e00004003d000802be0041
:102090000a03be007e805700a3ff07005fa89700d9
:1020a0000000e00005003a001fb29700afb29700b1
:1020b0003fb39700cfb39700090007006fb09700b8
:1020c000ffb097000fb997009fb997004f06be0069
:1020d0004f05be004f04be000080fa00000006005d
:1020e0000100070000000600a4b79f00b5b79f00dd
:1020f000c6b79f00d7b79f00000006004f09de005b
:1021000082817100b3b79f004f01de0081804000e3
:1021100082807000a1b79f008fb097004f09de004a
:10212000000040000200700090b79f007fa8970059
:102130004f01de00818040008280700081b79f00e7
:102140000d0007004f3ade00000040000400700060
:10215000f0af9f00080007000402420085824a0099
:1021600006034b0087834b00dfff07000802be0019
:102170000a03be00000006002fb29700bfb297000e
:102180004fb39700dfb3970000000600881f780068
:1021900018002000881f780089ff07008f87e9005a
:1021a0004f04780000000600801feb0084ff07004a
:1021b0008f87e90000000600889fbe008a9fbe004e
:1021c000e00f5000e08f5800e00f5900e08f5900f9
:1021d0000c003d006044b8006055b8000000540099
:1021e00081805c0002015d0083815d001800200099
:1021f0001500070008003d00180007000004eb0070
:10220000050037000004eb000f00070002003d004e
:102210001200070018002000dcff07000800e000a3
:10222000060032006022b8006033b800000052009f
:1022300081805a0002015b0083815b004f05be0074
:102240004f04be0000000600e00f5200e08f5a006d
:10225000e00f5b00e08f5b00000006006044b80008
:102260006055b8000402540085825c0006035d00de
:1022700087835d0000000600889fbe008a9fbe0025
:102280008c1f7800e00f5000e08f5800e00f5900dd
:10229000e08f59000d003d006044b8006055b80063
:1022a0000000540081805c0002015d0083815d00bc
:1022b0001c0020000820e10009a8e1000ab0e100ac
:1022c0000bb8e1000d003d00080037000006eb00f0
:1022d000e00f5200e08f5a00e00f5b00e08f5b00e0
:1022e00006003d006044b8006055b8000402540088
:1022f00085825c0006035d0087835d00aaff0700fe
:102300000c00e000060032006022b8006033b80024
:102310000000520081805a0002015b0083815b0053
:102320004f0678004f05be004f04be0000000600b7
:10233000889fbe008a9fbe008c1f78000006eb00bd
:10234000e00f5000e08f5800e00f5900e08f590077
:1023500007003d006044b8006055b800000054001c
:1023600081805c0002015d0083815d001c00200013
:10237000e00f5200e08f5a00e00f5b00e08f5b003f
:1023800007003d006044b8006055b80004025400e6
:1023900085825c0006035d0087835d000c00a2005f
:1023a0007e0107000c00e000060032006022b80049
:1023b0006033b8000000520081805a0002015b00c7
:1023c00083815b004f0678004f05be004f04be00be
:1023d000000006000800fa00889fbe008a9fbe0029
:1023e0008c9fbe000004be000205be00830678007c
:1023f0009ffb07006420e100a3003e00a60032001e
:102400000006eb000bf0a10003ff230002002000f8
:102410006000b8000802be000a03be0004fb07000b
:1024200009003d0003ff2300020020006000b80007
:102430000802be000a03be0002fb07000004be0043
:102440000205be002c00200013fd23004261220083
:10245000e1e9250060d52c000802be000a03be0099
:10246000f3fa07001d003d00b3ff2300a2672b0015
:1024700081852e00a0ca24000802be000a03be0007
:10248000d7f90700009fbe000297be0073fe23002d
:1024900052cf2600010b2d00509529000802be00e6
:1024a0000a03be00cafc070007ff23000600200045
:1024b0006022b8006ffe07000802be000a03be00db
:1024c000c7f907003e02be002e03be00ddfa07007a
:1024d0000004be000205be000c06e8000800be00b5
:1024e0000a01be0003f0a10067e42300e6092a0008
:1024f000f5672600d4bc2300c8fa07000800be0018
:102500000a01be004c0035000802be000a03be00ee
:10251000affc0700009fbe000297be00e702240048
:1025200096c42000a5142e0004712c00acf90700fd
:102530003e02be002e03be00a5fc0700d704240007
:10254000a6a02c00d5202300743d2a00a4f9070082
:102550003e02be002e03be009dfc0700570524006e
:1025600026a12800b540200054da26009cf9070077
:102570003e02be002e03be0095fc07004704240067
:10258000c687280045cc2b00945a290094f90700ef
:10259000809fbe00829fbe003e00be002e01be0096
:1025a000a7fe2b00a6d72c00159b2d00d47b28005e
:1025b00087fc070007022c00f6d32f00d5c82500a2
:1025c00034a6260086f907003e02be002e03be0098
:1025d0007ffc070047032c00f6172800259e2b00e0
:1025e000b4cc2b007ef907003e02be002e03be00d5
:1025f00077fc0700b7022c00660a2600651025004c
:1026000024ce210076f907003e02be002e03be0054
:102610006ffc07004f03be004f02be0089fa07009f
:102620000802be000a03be0069fc07000802be00e3
:102630000a03be006af907000c00e0000f00320038
:102640000c10a70003f0a20084d12200454425000d
:10265000b61f220097ff23006260e10006003200ef
:1026600064362700d582230026152c0007fe2300a0
:102670000c10a70007ff230059f907000df0a70071
:1026800003f0a20020fb37000330a000140220005a
:10269000946188001cfb370093ff2300b21f2200c7
:1026a0004144250080d12200f4ff3700889fbe00fe
:1026b0008a9fbe008c9fbe000404be000605be00bb
:1026c000809fbe00829fbe00e9fa070004067800e2
:1026d0000800be000a01be00e5fa07008406780083
:1026e0004f03be004f02be008d4f76007fb09700b3
:1026f00013003300f0ff2f008b8f6b0006003b00b0
:102700000d0666000c00a7000a00370007f0a600bf
:10271000100020000a003700880f5200898f5a00ed
:102720008a0f5b008b8f5b000300390010002000d4
:1027300001003e000000200007f0a7000000ea00b2
:102740004f06be004f05be004f04be00000006004d
:10275000e48240001078a3000700320064024000c9
:102760001178a3003400be001401be000400320042
:102770000330a700000006003500be001501be00b2
:102780000330a00000000600800078005002be0068
:102790005003be004439de00f700b200f37f200092
:1027a00003016100090032000218e10016003a003e
:1027b000850172008301730083817300000820008b
:1027c00015003a0040002000130037008501720018
:1027d000830173008381730005003a0004a8be00e2
:1027e00006a8be00100020000b0037000201e9001f
:1027f0000402420085824a0006034b0087834b0097
:102800000748a300f9ff32000740a00004a8be005b
:1028100006a8be00200020008000980092009800ca
:1028200000000600889fbe008a9fbe00841f7800bb
:10283000cefb07004f00780011003300f0ff2f009f
:10284000838f6c0006003b00040565000a00a700aa
:102850000800370009f0a60010002000080037002b
:10286000820f5400838f5c000300390010002000a9
:1028700001003e000000200009f0a7000000ea006f
:102880004f05be004f04be000000e000000006003f
:10289000881f7800030478000300e00007003d0073
:1028a00060001000e080180060011900e08119004c
:1028b00002003b0001f02d00030037000400070078
:1028c00008f0a70001f0a0004f0478000000060007
:1028d000889fbe008a9fbe000082700004027100c3
:1028e00004827100260032000004be000200be0017
:1028f0006011b8006b092000950220000182cf0012
:102900000a0039000541b1000082cf0007003900fc
:102910000541b1000982cf00040039000541b10032
:102920000882cf00010039000541b1000542520084
:10293000120032000a003b008281710061016400d4
:102940008100d1000080d3008984d3000884d300a3
:102950008b05e8000442e800f7ff3a000700370063
:102960000804440089844c0000004800818048002d
:102970008b05e9000442e900f9ff3a0040fb07003b
:102980004f05be004f04be0000000600801feb0094
:10299000250007008f87e90000000600889fbe0021
:1029a0008a9fbe008c9fbe000404b8000506b800d4
:1029b0008904460060854e000606b8000a054600f8
:1029c000e0854e000706b8008b054600040eb800ef
:1029d000890446000a854e00e0854d00050eb800ca
:1029e0000a0546008b854e00060eb8008b05460092
:1029f0000416b8000a0546008b854e000516b8007f
:102a00008b054600041eb8008b0546000800be007a
:102a10000a01be004f06be004f05be004f04be00b7
:102a200000000600000000002800fa00889fbe0099
:102a30008a9fbe008c9fbe000efe97001efa070004
:102a40006108e1005c0032006200e1005a003e00d3
:102a5000540039006408e100520032006c01470064
:102a6000748557003200be001201be003a04be0059
:102a70001a05be009e029000be0e90000d8252000c
:102a800017003b000402e80046003a00880f50009f
:102a9000898f58008a0f59008b8f590041003400ec
:102aa00064014700780347003200be001201be00f7
:102ab0003602be001603be0007f0a10003f0a60018
:102ac00007f0a0000c70a70045f807000efa3700c9
:102ad00000004000818048000201490083814900d4
:102ae0000c00a00008005000898058000a0159001d
:102af0008b81590005003b00080040008980480098
:102b00000a0149008b8149000c00a1000402e90080
:102b1000efff3b00000240008182480002034900b1
:102b2000838349001b0032000802520089825a0048
:102b30000a035b008b835b004200f800050037004e
:102b40000000400081804800020149008381490063
:102b50008d06e9000340a600f9ff37006022b800a7
:102b60000d03780096f90700780347004200f9004a
:102b70000800350002003c000c08a30005003200ec
:102b80003602be001603be0007f0a0000c70a700be
:102b900013f807005e02900004f0a70003f0a20003
:102ba000d9f937002e009000be0090004e01900031
:102bb000de019000d4f93700100220000c70a6004e
:102bc00090618800cdf93700889fbe008a1f780089
:102bd0000004be00c900900069009000808f500082
:102be0000600390009007800c1090700800078005c
:102bf0000080eb000100e000170035000845780078
:102c00004900900008587800c00498001900780026
:102c100000b8a30004003a0000a8a3000800320096
:102c2000ea4f540006003a00090078008f010700bf
:102c3000800078000080eb000100e00006003a0010
:102c400000c020001900600002003200490090001e
:102c5000e00498000a80fb004f0578004f04be0096
:102c600000000600e1c82100d7ff3700e1c82100bd
:102c70006b080700800078000080eb000100e00096
:102c800004003500e1c82100a0002000ceff0700ad
:102c90004f80de00000006004f02b000889fbe009b
:102ca0008a9fbe008c9fbe008e1f7800a0b79f0039
:102cb000010478000206be00000778008800780052
:102cc0007c805700c2000700e8006000b1b79f0099
:102cd000000278000430a100e10f520048003a00e1
:102ce0002400200083fd2f008f814100080178001f
:102cf000afb097000e007800d302070000077800fd
:102d00000e00e00007003a006000b8006011b80053
:102d100080af9f0091af9f00a2af9f00b3af9f0015
:102d2000320037004272dd0082fd2f000f014100aa
:102d3000040241001400be00e4b79f001dfa070022
:102d40000004be000205be0088af9f0099af9f003f
:102d5000aaaf9f00bbaf9f006fb29700c4b79f00a0
:102d6000a4f82100d4b79f00fcb79f008dbf9f003f
:102d7000150037004fb197004200be00c2b79f0058
:102d8000e00f5000e08f58000c00320009fa0700f5
:102d90005fb697003c02be002c03be008cfa070011
:102da0000002be000203be000800be000a01be0011
:102db0008bf707000004be000205be005fb097005d
:102dc00068004000d0b79f000e07e9004240a9000c
:102dd000e8ff3c007fb697008fbe970088af9f004a
:102de00099af9f00aaaf9f00bbaf9f004faa97006b
:102df000dfaa97000c0242008d824a004a00370089
:102e0000e20f52004e003a0083fd2f008f814100f7
:102e100008017800afb097000e007800020c0700a0
:102e2000000778000e00e00007003a006000b800dc
:102e30006011b80080af9f0091af9f00a2af9f00cc
:102e4000b3af9f00320037004272dd0081fd2f00da
:102e50008f804000048240001400be00e4b79f0051
:102e6000d4f907000004be000205be0088af9f0031
:102e700099af9f00aaaf9f00bbaf9f006fb29700b2
:102e8000c4b79f00a2f72100d2b79f00fcb79f00f4
:102e90008dbf9f00150037004fb197004200be0064
:102ea000c2b79f00e00f5000e08f58000c003200c6
:102eb000c0f907005fb697003c02be002c03be00bd
:102ec00043fa07000002be000203be000800be0075
:102ed0000a01be0042f707000004be000205be0062
:102ee0005fb0970068004000d0b79f000e07e90070
:102ef0004240a900e8ff3c007fb697008fbe9700d4
:102f000088af9f0099af9f00aaaf9f00bbaf9f0003
:102f10004fa99700dfa9970000fd2f000f00400088
:102f20000d0107000c02be000fa897009fa8970094
:102f30002fa99700bfa997009b0107001200370037
:102f40006000b8000200200003ff2700e30f5200da
:102f5000080032006000b8006011b800e40f5200b1
:102f600009003a00f0ff2f00f1ff2f00f2ff2f00c1
:102f7000f3ff270080af9f0091af9f00a2af9f009b
:102f8000b3af9f000400370080af9f0091af9f0058
:102f9000a2af9f00b3af9f000fa897009fa8970014
:102fa0002fa99700bfa997003fb297000400e00047
:102fb0000100320003f0a2004f0778004f06be0068
:102fc0004f05be004f04be004f02b10000000600d6
:102fd000889fbe008a9fbe008c9fbe0000047800c0
:102fe0000106780098047800890578000b057800c0
:102ff0008a057800bb4678000d00fb0093000700af
:103000000000e000f9ff3a00d0c2b30080cf5600c4
:1030100003003a000b05780081002000050037000e
:103020008000eb00b0c2b30080cf560001003a0030
:103030000b0578001a407800e2c6b300824f5000ba
:1030400003003200e2c4b300824f500027003a0070
:103050008a0078005141780010c6b300804f5100bb
:10306000040032000000eb0013c4b300834f510092
:103070005c003a0051417800e0c6b300804f510037
:10308000040032000000eb00e3c4b300834f5100a2
:1030900054003a008104780080c2b300d94f100078
:1030a0000b003a00640545008a057800ba467800ae
:1030b0000d00fb00570007000000e000faff3a0097
:1030c000f0c5b30080cf5600f7ff32000100370093
:1030d000890578004000200091c2b3009bcf10000a
:1030e00040003a008b04e8003e00370092c6b3006f
:1030f000824f50000300320092c4b300824f500050
:103100003c003a005a417800e0c6b300804f5100bd
:10311000040032000000eb00e3c4b300834f510011
:1031200030003a005a41780060c6b300804f510029
:10313000040032000000eb0063c4b300834f510071
:1031400028003a008a047800010078003000b300bb
:10315000d940780092c6b30082cf500003003200fd
:1031600092c4b30082cf50001e003a00890078005c
:1031700051417800e3c6b300834f51000300320091
:10318000e3c4b300834f510016003a005141780068
:1031900093c6b300834f51000300320093c4b300c1
:1031a000834f51000f003a005141780043c7b300ec
:1031b000834f51000300320043c5b300834f5100d9
:1031c00008003a005141780093c7b300834f510083
:1031d0000300320093c5b300834f510001003a0051
:1031e0008104e8000c00e00005003200090e7800c0
:1031f00003003700010078000000a0008a04780076
:10320000090c78004f06be004f05be004f04be00fb
:10321000000006000003b1000b0035009000b10073
:10322000080034008000b100070035009001b100b3
:10323000040034007000b100030035009001b100bb
:1032400001003c0010000500000005006900e100dd
:10325000040035006d00e100030034000002b100fd
:10326000010032000000050010000500889fbe002c
:10327000000478000800e0000f003a008004eb0032
:10328000090478008800d000e0cd210061007800ba
:103290000000e00004003200f4ff07000000e0003e
:1032a00001003d008084eb000804e800e80f5400b2
:1032b000f4ff3a00250037000000220018006000eb
:1032c0008004eb0021003200a80490000f003700ba
:1032d00009015100384090000000fb00890078008f
:1032e000d2f507000000e00007003c002800900035
:1032f0004004980060049800500c98001890a000ba
:103300008084eb0011003700808444004801900065
:10331000828f5400eeff390028009000400498008e
:103320009800780002c020000281600001003a008d
:103330003800900001e8a300020032006004980009
:1033400001003700500c98008004eb000900780061
:103350004f04be00000006000400fa00889fbe0073
:1033600000047800e6044400190078008000d000d2
:10337000c508de00f47f2000848f50000e003a0064
:10338000ef006000200020006a003a00a8009000d2
:103390000100e00067003a00980090000100e000a2
:1033a00064003a00100020001800e00061003200c4
:1033b000200020005f0037000100e0000a003a0012
:1033c00008007800c2bf9f00d3bf9f0072070700ac
:1033d000800078000000eb004fb99700dfb997003c
:1033e0000100e00053003c004f88de0002814000f5
:1033f00083014800e07f2000800f5100e08f5900da
:103400000c0034006000b8000200200003ff270019
:103410001900e00003003d006000b8000200200039
:1034200003ff2f00009cbe000294be00100020008d
:1034300040003700e00f5100e08f590005003400d4
:103440004411dd00f000280019006000800c7100bc
:1034500037003700190078000400280004026000db
:103460006f0060000040a000800c7800d0fc2f00ae
:10347000f1ff2f00800f5100818f590006003d00a1
:10348000840c78000000eb002004980010049800e1
:10349000000ceb00270037006f01410006003700e9
:1034a00008007800500c7800e4004400110878000f
:1034b00099087800800ceb00700051007001410009
:1034c00001fe2f0082804000ef8f4000f4ff3500a6
:1034d0000000ea001500320088007800700110003a
:1034e000d1027800822add00980178008019de0080
:1034f000038c72006404440098027800822add0084
:10350000910178008019de008388720099007800ac
:103510000209dd00980078008008de00010c7100cf
:10352000990078000008de00800c7800990c720089
:103530000080eb004f04be000080fa00000006008f
:103540000a00fa00881f78000004780088007800dc
:103550006c805700b4bf9f00c5bf9f00d6bf9f00bf
:10356000e7bf9f008e0007003fba9700cfba9700d1
:103570005fbb9700efbb97003800be002801be007c
:1035800093f80700009cbe000294be002fb997007c
:10359000cf91de00080078006fff07004f0478002d
:1035a0000080fa00000006000800fa00889fbe00b4
:1035b0008a1f780090bf9f00a1bf9f00b2bf9f00ed
:1035c000c3bf9f000404be00e00f5200e08f5a000a
:1035d0006b0032006022b8006033b8008ff607003d
:1035e0000000e00066003200e00f5400e08f5c0055
:1035f00031003d0060041400e0841c000005eb0075
:103600006000b8000200200003ff23000808a300a8
:1036100006003200c352dd0024ee21000482420085
:103620005403be004402be0069f807008904d100bb
:103630000884d300e00f5400e08f5c0003003200e8
:103640000a05e800e80f5500f0ff3a000002be004e
:103650000203be006000b8000200200003ff230048
:1036600078f607000002be000203be006e8057001d
:10367000b3ff07000000e00039003d00e00f5400f8
:10368000e08f5c003e00320034f42600c54a26007c
:103690008662200087ac20006e805700a8ff0700dc
:1036a0000000e0002e003d0061045400e0845c0056
:1036b000f5ff3a002e0037000005eb006000b8006f
:1036c0000200200003ff23000808a30006003200c8
:1036d000c352dd0024ee2100048242005403be00e8
:1036e0004402be003af807008984d1000884d30060
:1036f000e00f5400e08f5c00030032000a05e80090
:10370000e80f5500f0ff3a000002be000203be00c1
:103710006e8057008aff07000000e00010003d00a7
:10372000e00f5400e08f5c0015003200c4f32b0062
:1037300035f72700d6fd2400575127006e8057002b
:103740007fff07000000e00005003d006104540019
:10375000e0845c004240a900f4ff3c000400370014
:103760000000e00002003a000001200003003700e2
:10377000e10f500002003a0080002000d20607004e
:103780001fb89700afb897003fb99700cfb997001f
:103790004f0578004f04be000080fa0000000600cc
:1037a000889fbe0000047800e68440001900d00025
:1037b0004500de00f27f2000820f500010003a002a
:1037c000000ceb00990478006f8164002000200059
:1037d0001b003a00210190000200e00018003a00ae
:1037e000110190000200e00015003a0010002000d6
:1037f0001100e0001200320020002000100037000d
:103800000000e00004003a000100780062060700b2
:103810000000e00008003c00f200280019016100ef
:1038200001fe2300810c710021c02f00010c40001b
:103830000080eb0002003700000ceb000000eb0002
:103840004f04be0000000600f4874700889fbe00ba
:103850008a9fbe008c9fbe008e1f780080b79f009d
:10386000c2b79f00030478006726b9000000eb0090
:1038700080057800010037001b002000610ab800b5
:103880006101b8000403410096b79f000000e80002
:10389000e441790002c3b30082cf5100f6ff320049
:1038a000000ceb0038147800080578000007eb00e6
:1038b0008e0478002c0037008c8f54001b003d00d4
:1038c00074002000110009008404d800010278006f
:1038d0000400e00003003a0064054500001deb0011
:1038e0000015eb007fb097008fb897006042790019
:1038f0000402fb00cfa2de000403b1000580b1008a
:10390000a2002000030020001a00be00e4b79f00c0
:10391000d5b79f00f91107006fb29700dfb297008b
:10392000001d420001954a000c00370012002000e3
:1039300003002000180c4100589449008c8f54005b
:1039400007003a00e6c07a0040c3b30080cf5000c1
:10395000030034001a0d41005a9549008904e8001b
:103960000e07e8001b0020009fb097006108b80018
:10397000f0b79f0081bf9f006171b8000200400056
:1039800083804800a0b79f00b1b79f0080067800f1
:1039900002037800ffb2970062c27a008403fb0042
:1039a0000703b100e98f5300c3ff36002fb0970023
:1039b0008c8f5400010034008c047800e1c2b30005
:1039c000814f520001003a008006e8000000eb0041
:1039d0000900e000070032000007eb003300370069
:1039e0000081eb008081eb00180c410058944900e5
:1039f0001b002000616ab8006101b80002034200a8
:103a000083834a000000e8006441790001c3b300e9
:103a1000814f5100f2ff320086067800eeff37003a
:103a20008c8f54001f003d0074002000110009001d
:103a30008404d800010278000400e00003003a008a
:103a400064054500001deb000015eb002fb097004a
:103a5000bfb09700624278000402fb00cfa2de00f4
:103a60000403b1000580b100a20020000300200083
:103a70001a00be00e4b79f00d5b79f009f11070052
:103a80006fb29700dfb29700001d420001954a0017
:103a90008904e8000081eb008081eb00180c4100f4
:103aa000589449000e07e8001b0020006169b80027
:103ab0006170b800a0b79f00b1b79f00000341003c
:103ac0008183490006027800e24278008502fb000b
:103ad0000503b100e98f5200d1ff36000b067800d4
:103ae000060778007d002000110009008d04d80031
:103af0000100e00012003200818656001a01be006b
:103b0000e00f5100e08f5900090032000d00e9007c
:103b10004200dd00a1f92100010040001000be00bc
:103b2000e6b79f0075110700008dbe006fb29700c9
:103b3000898446006168b900181c100018941800a8
:103b40008006eb0005003700e78454007200200077
:103b500003002000180c410058944900e68f5400df
:103b60000c0034006168b800c2ff2f00f3ff2f0083
:103b7000e4b79f0061110700800045001100be00fe
:103b80008d06e8006fb29700e00f5000e08f5800fc
:103b9000edff32000b00e000370032001e407800dd
:103ba00051c6b300814f50000300320051c4b3002e
:103bb000814f50002f003a000e057800da4578005a
:103bc000b0c2b30080cf550003003200d1c2b300b1
:103bd00081cf550002003a000a05e80001003700d5
:103be000804578008006eb006000b8000d06780084
:103bf00010003700f20f2e00535f2000820f50009c
:103c0000838f580009003c00a20020000300200020
:103c10003a1107000e01fb00cf91de000203b10054
:103c20000380b10002004000838048008d06e80058
:103c30001c0020006153b8006169b8000602410011
:103c4000664779000e01fb000203b100e90f510045
:103c5000e8ff3600d2c2b30082cf550002003a001e
:103c600060001000e0801800180c400058944800d4
:103c7000010037000b067800cfb197000300e00089
:103c8000050032000c00e00001003a000fb297007e
:103c90004fb39700040b7800720020001100090058
:103ca0008204d8004f0778004f06be004f05be00c3
:103cb0004f04be004f01b10000000600889fbe0007
:103cc0000004780001007800820478008801780000
:103cd000090178001100200099040700890f5000a5
:103ce000010032000004eb00080078004f04be0021
:103cf000000006000000fa00e88157004fb9970065
:103d0000e1c82100e0e52100020007000080fa0080
:103d1000000006006200fa00889fbe008a1f78003b
:103d200000057800810478000204780083007800a0
:103d300080f92f000f004000330907009a979f0079
:103d4000a9979f000000eb00b09f9f001885fb0023
:103d50008a04fb000a05ea004f55de0050022000ed
:103d6000808f54000d003200e10f55000b003a0027
:103d70000a017800880078002f9097009f919700a3
:103d800003000100a0979f000000e0008e003200b9
:103d90003f9897000000e800b09f9f000a0444008d
:103da00050022000808f5400040032000900e0001f
:103db000e6ff3a003f989700840037000000eb00d0
:103dc000909f9f00809f9f00f0979f00e0979f002b
:103dd000d0979f00c0979f0007003700e1fc2100ab
:103de000010050000000400021fc2100610078002b
:103df000df98970001007000d09f9f008804780032
:103e000009047800384578008a00fb00e0fc2100b6
:103e1000c50407000000e000f0ff3a00a1c2b300b3
:103e2000814f55000e003a00cf8897000180e900cd
:103e3000c08f9f0010007800c09f9f000000e0002e
:103e400005003d000000ea00c09f9f005f989700ba
:103e50000020a000d09f9f000904e8000f00370059
:103e6000c09f9f000000eb0005003700f2ff270015
:103e7000820f5000020032006a01b9000280400047
:103e80000904780088047800b900fb000103b10040
:103e9000e98f5000f5ff3600c09f9f00e0c2b300dd
:103ea000984f1000020032000080eb00190037002c
:103eb000a0c2b300d84f100007003a00cf88970087
:103ec0000180e900c08f9f0010007800a09f9f0034
:103ed0000804e800100037000000eb00a09f9f00de
:103ee0008800780005003700f3ff2700830f50009b
:103ef000020032006a02b9000400410001047800a7
:103f0000880078003101fb000203b100e90f510085
:103f1000f5ff3600a09f9f00984478008900fb00c1
:103f2000a0fb2100800407000000e0000200320036
:103f30000804e800010037008044eb00c97f9f00bf
:103f400080c6b30080cf540004003a0098cf14001c
:103f50000a003a006640500006003700c0c6b300b1
:103f600080cf540005003a0098cf140003003a00b7
:103f700065404000c07f9f000804e8001801fb0076
:103f8000e3fb2f008f81410081f92f008f804000db
:103f9000a0f92f000f004000100007000000e00013
:103fa00009003a00e1fb2f008f804000a0f92f00ac
:103fb0000f004000440607000000e000020035004a
:103fc0000804e80061ff37000080eb004f0578002f
:103fd0004f04be000080fa0000000600889fbe006b
:103fe0008a1f780000047800010078008240780081
:103ff00072c6b30082cf500021003c0002c1e9002c
:1040000082cf5000cc003d007241510082cf500061
:10401000290132000d003c006c41510082cf50005c
:104020003c013c0002c1e90082cf5000c2003d00cb
:1040300052c2b30082cf5000330132007c414100b4
:1040400082cf500033013a00bb00370012c6b300e4
:1040500082cf5000b800320004003c00694151009a
:1040600082cf50002b013a006600370032c6b30001
:1040700082cf5000180032000241e80009003700ea
:1040800002c7b30082cf5000fd00320008003c00a0
:1040900002c1e90082cf5000c600320059003c0046
:1040a0006541510082cf50001a013a000f003700dd
:1040b00052c7b30082cf500052003200634141002a
:1040c00082cf50004f0032006541510082cf500036
:1040d00010013a00f80037009080e90001087800ec
:1040e0007800900091407800080137002861900026
:1040f000c4c6b300844f510007003a001002780094
:1041000064015200020878001202be004fabde00cc
:10411000860378001100370014c7b300844f5100a4
:1041200003003200a4c6b300844f510006003a00d9
:104130001002780068015200020878003202be00c6
:104140002203be00050037001081e9000208780054
:1041500012027800cfa2de00612bb900049cbe00e1
:104160000694be002860900082c6b300824f5000c3
:104170000d00320022c6b300824f500004003a0006
:104180000402fb00cfa2de00612bb900080037005b
:1041900042c7b300824f5000030032006641410025
:1041a000824f500004003a00cfa2de00612bb9001c
:1041b000049cbe000694be003802be002803be0068
:1041c00078009000d2c2b300e00f5200e08f5a0096
:1041d000e00f5b00e08f5b000800350008119000e5
:1041e0000218a30002003200b2c2b300030037007d
:1041f0000208a3004c00320002c2b30082717800b2
:104200004700370028619000c4c6b300844f5100b6
:1042100006003a001002780064015200020878009b
:104220001202be006033b8001100370014c7b3009b
:10423000844f510003003200a4c6b300844f5100e4
:1042400006003a0010027800680152000208780067
:104250003202be002203be00050037001081e900d3
:1042600002087800120278008002eb006033b80088
:10427000049cbe000694be002860900082c6b30075
:10428000824f50000d00320022c6b300824f500012
:1042900004003a000482fb008002eb006033b800a7
:1042a0000800370042c7b300824f500003003200bd
:1042b00066414100824f500004003a008002eb004a
:1042c0006033b800049cbe000694be000810900045
:1042d0000038a300140032003802be002803be00dc
:1042e000e00f5200e08f5a00e00f5b00e08f5b00b0
:1042f0000d00320080c7b30080cf500003003200b1
:1043000080c5b30080cf500007003a0078009000cd
:1043100002c3b300827178000000e8008171780068
:104320000000e8007004980078009000808141004f
:10433000630498005d0037001002780068015200a5
:10434000020878003202be002203be00049cbe00b8
:104350000694be0038019000780090000200e00052
:1043600002003d00d2c2b3000800370008119000df
:104370000218a30002003200b2c2b30003003700eb
:104380000208a3000400320002c2b3008271780068
:104390000000e800700498007800900080814100df
:1043a000630498008100fb000800780065000700a6
:1043b0006000370028619000c3c6b3009080e90018
:1043c000834f5100220032000a003c00e4c151003a
:1043d000834f51002500320083c1e800834f510014
:1043e00013003200e8c15100834f51001e003a0013
:1043f0000a00370043c7b300834f51001b0032004f
:10440000e6c14100834f510018003200e9c151005c
:10441000834f510014003a0005003700010878006e
:1044200011007800485c900008487800410037008f
:104430000108780011007800680a9000cfa2de0021
:10444000612bb9000498be000690be003900370009
:10445000010878001100780068099000cf91de0013
:104460000288be00330037009080e9000108780020
:1044700011007800680c9000080878002d003700c3
:104480009080e9000108780011027800cfa2de00d8
:10449000612bb900049cbe000694be007800900019
:1044a000808141006304980081c7b3000800780050
:1044b000d60307001f0037009080e900010878004c
:1044c000110578006a049800d80c90000900e000fb
:1044d00004003d000a0078001f03070080047800f4
:1044e00007003700090178008000eb000a0078001f
:1044f000fc0207000000e000010032008a045000c6
:10450000190c98000b00370078009000817178003a
:104510000600370078009000808141000104e0002f
:1045200001003a0051c2b300814978000000e80060
:10453000700498000000eb004f0578004f04be00a7
:10454000000006002f04b000889fbe008a9fbe00b6
:104550008c9fbe008e1f78000007780081f79f00b7
:104560003e04be002e05be005e0890000000e00084
:1045700002003d0060002000500f98008e0078007f
:1045800020fb2f000f00400085fc0700e20f5000c9
:104590000a003a0030002000100f9800b1c9b300a3
:1045a0000ff097008140400020cf2100e1cf500064
:1045b0000d003e00e0ce21000b0037000000e000bf
:1045c0000f00340030002000100f9800b1c9b30074
:1045d0000ff1970081404100a0cf2100e1cf5000b2
:1045e00001003e0060cf2100ee009000b04878004e
:1045f000b06878001040780090409800f3003700d1
:104600000000e00005003a0022fb2f000f014100ee
:10461000001978008001eb00e70037006022b80045
:104620006033b8000800be000a01be007bf207003c
:104630000000e00001003d000bf0a20070592700cf
:104640009f9897000088b900026a28001300200094
:10465000880e0700640650009c9f9f0013003b00db
:1046600063061600c0ff2f00000666008c01ea00fa
:10467000939f9f00edcf21000800be000a01be00fd
:10468000070037000c08a300030032003d02be0003
:104690002d03be004ef407000c86d100e8864600cc
:1046a0000c00e000f7ff3c00180037000c00e000b1
:1046b00018003200c0ff2f00000666009c9f9f007c
:1046c000edcf21006000b8000200200003ff2300ae
:1046d000070037000c08a300030032003d02be00b3
:1046e0002d03be003af407000c86d100e886460090
:1046f0000c00e000f7ff3c000002be000203be0019
:104700000800be000a01be004ef207000004be0011
:104710000205be00de08900060c6b3000ff29700ed
:10472000804f5200040032006000200062c4b300d9
:10473000824f520002003a009f9a97006a8042001e
:1047400081004000f1b79f0001037800f30f530090
:104750000200340037012000f7b79f0000c3b30008
:10476000c0779f0056fb2f000f0343000e00780018
:10477000a0b79f00060778003d0037000800be0084
:104780000a01be0008f307000006be007fb19700d3
:1047900068015100f2b79f004240a9000c003400ac
:1047a00084f307000002be000203be000800be0042
:1047b0000a01be00aff507006022b80046782d0060
:1047c0007719240002f407000004be000205be00b1
:1047d000e80047008e0020000802be000a03be0069
:1047e000b4b79f00c5b79f00d6b79f00e7b79f003b
:1047f0000c01be00010478000c003700a40020006a
:1048000005002000c0fd2f000f004000200207001f
:104810006fa89700ffa897000fb197009fb197006e
:1048200005c3b300056441000001be00e00f510064
:10483000e08f5900030034000e07e900e10f470044
:10484000eeff3a00880078003fb49700cfb497009d
:104850005fb59700efb597000200370000c3b300c3
:10486000806078000e07e900fcff3b00688740008d
:104870007fb397000600e000070034006022b80014
:104880006033b8000800be000a01be00e8f107006e
:104890000000e000b9ff3c000e0378002fb797003e
:1048a00051fb2f008f804000010353009f9b970016
:1048b00067804300909f9f00020037000603e900d5
:1048c0000000e900010178008200780003c3b30012
:1048d000b1cf1100f9ff3200909f9f00de099000d8
:1048e00061c6b3000ff29700814f520003003200ff
:1048f00061c4b300814f520002003a000000e8009a
:104900000a0037001000200051c6b3008ff2970054
:1049100081cf5200050032000540780050c4b2003b
:104920000080fb000000e9004f00de008301400032
:10493000868f510001003400860178000300e000fa
:104940001d00350000c3b300868f510006003d00f6
:1049500062c279006940400041c3b300814f5200f8
:1049600001003c00694050008300e90081004100e3
:1049700001003700840178000302e9000103780098
:10498000a142780080cf5200faff320091c3b300f9
:10499000814f500001003a00054be8000400e000a0
:1049a00005003d000201e9008301e8001f9b97001c
:1049b0000603e800969f9f008ff397008700fb0097
:1049c0001f9a97000e007800060007004f07780036
:1049d0004f06be004f05be004f04be002f04b100bd
:1049e00000000600f0874700889fbe008a9fbe0037
:1049f0008c9fbe008e1f78000004780081447800f0
:104a00000205be00040678000b00e00002003c0036
:104a10001b002000cafd210060c6b30080cf5400f7
:104a20000e00320060c4b30080cf54000b0032008f
:104a300070c6b30080cf54000300320070c4b300ce
:104a400080cf540081003a00e40f46007f0035001b
:104a500058089000800f56007c003d000c06e800ce
:104a600060c6b30080cf54001000320060c4b300b1
:104a700080cf54000d003200081090000038a300d1
:104a800004003a0058089000808f550001003d0056
:104a90005b0c9800580890000c005000500c9800d7
:104aa00002003b000000eb00500c9800180890003a
:104ab000e80090000c00e00026003c0002c3b300b8
:104ac000827078000000e800100c9800d808900070
:104ad0000100e00003003c00881090000138a300b2
:104ae00005003200e8009000e2c2b3008270780056
:104af0000000e800100c9800580890008c00ea00b4
:104b0000810f500001003d000006ea008c00ea0021
:104b1000210c9800000646005c0c98008b0f560094
:104b2000010034000b0678003c0c9800e80090006f
:104b300018089000008040000c0178008a0078007e
:104b400072010700580890000c0650004c0c9800a9
:104b5000900037008c8f550018003d000080400009
:104b60000b0178008a00780068010700180890009f
:104b700000804500100c98008b0556002b0c980007
:104b8000d80890000100e00003003c00881090006d
:104b90000138a30006003200e8009000e2c2b30032
:104ba00082707800380890000000e800300c98000f
:104bb00058089000400c98007600370000804000b4
:104bc0000c0178008a007800500107001808900056
:104bd00000004600100c98008c855500d808900005
:104be0000100e00003003c00881090000138a300a1
:104bf00005003200e8009000e2c2b3008270780045
:104c00000000e800100c980058089000808f5500b4
:104c10000100340080057800e8009000180890003a
:104c2000008040008c0045000b0178003701070030
:104c3000180890000b004000100c980058089000d5
:104c40008b0550002b0c980052003700180890007c
:104c5000e80090009a7078000000e800100c9800be
:104c6000d80890000100e00003003c00881090008c
:104c70000138a30005003200e8009000e2c2b30052
:104c8000827078000000e800100c9800580890002e
:104c90000000e000100034008b05e900808f550013
:104ca0000100340080057800e800900018089000aa
:104cb000008040008a00e8000b0178001301070023
:104cc000180890000b004000100c98005808900045
:104cd0008b0550002b0c9800e800900018089000fd
:104ce00000804000095878000007e8000c00e00050
:104cf00004003500b1c2b300014878008e0478008a
:104d000004003700d1c2b300014878008e04780057
:104d10000c06ea007d8557008006eb00090037008d
:104d2000a20020008c00780072805700310007003c
:104d30007fb097008fb89700016d7800000678006b
:104d40008d06e8000c00e000f5ff3c000d00e000df
:104d500009003a008e04780000c3b300805c78003c
:104d6000050037008d06e900fc80570061c07e0019
:104d700002c3b300825c40000d00e000f9ff3c007c
:104d8000e8009000180890000080400080845400e3
:104d9000390c98000810900074006000f00f50006b
:104da0000e003a00980890007800900000804000c3
:104db000a808900001004000b808900001004000e1
:104dc000c808900001004000f8089000810f5000d2
:104dd00002003d0000805000000c98004f07780052
:104de0004f06be004f05be004f04be000f01b100cc
:104df000000006008002780001037800110009001d
:104e00000203d80080017800830a78000299b90073
:104e1000020153009202980005007800000006008d
:104e2000889fbe008a9fbe0080047800010478003d
:104e30002c003700c800900068009000808f500060
:104e40000400390008007800290107000000e00094
:104e500037003500004020001800600009003200d3
:104e6000a100200009007800c1000700800578003b
:104e70000b00e00003003200618514000a85450044
:104e80000400370009007800b3000700000578002f
:104e90008005eb0048009000e80090008080500002
:104ea0008a8f500002003100010578008005eb0078
:104eb0000a017800890078009400070048009000fb
:104ec0000a004000400498000b00e000040032009b
:104ed00008007800e5f807000000e00014003a0040
:104ee0008a8444001904e000d2ff3a0000802000c8
:104ef000180060000600320008007800dbf80700a8
:104f0000800078000080eb000100e00009003a001a
:104f100001c02000988060000000eb000500320016
:104f200048009000600498000000eb00010037008a
:104f30000080eb004f05be004f04be0000000600dd
:104f4000889fbe008a9fbe008c9fbe008e1f780087
:104f500000067800010478000200780083047800dd
:104f60000881b900020778000200e0004200320028
:104f70000800e0004100320082057800c90090007e
:104f800069009000808f500004003900090078000b
:104f9000d70007000000e000290035000040200095
:104fa000190060000a0032000b017800a100200007
:104fb0000c0078004b000700800678000d00e00030
:104fc00006003200610516000a854600040037001d
:104fd0000b0578008006eb00010037000b05780018
:104fe00049009000e9009000808050008a8f5000b6
:104ff00002003100010578008006eb000a0178000c
:105000008c007800410007008a8555004900900017
:105010000a004000c00498000d00e00004003200c7
:105020000900780091f807000000e00004003a0051
:105030000b00e000020032000a064600cfff3700f6
:105040000080200019006000020032000900780092
:1050500086f8070000c0200019006000020032003e
:1050600049009000e00498008b05570011000900ea
:105070008885d800010037000000eb004f0778005a
:105080004f06be004f05be004f04be0000000600e4
:10509000881f78008a9fbe008c9fbe0000047800a5
:1050a0000205be000406be000401be000a00be00e8
:1050b000f00b0700008cbe000c01be000f0c0700b7
:1050c0000005550081855d002a0498003b04980086
:1050d000080078004f06be004f05be004f04780060
:1050e0000000060003003700b0cf100005003200ba
:1050f0000201e900800178000200e000faff3a00b6
:105100000000050003007800000006008001780020
:1051100002003700b15978000201e9000200e00006
:10512000fcff3a0000000600020037000304e00024
:10513000060032000001780002007800b0417800db
:1051400081cf5100f9ff3a00010037000001eb0068
:10515000020078000000060080007800010178005d
:105160003104e000fdff3a0000005100000006009d
:105170000001eb0000027800b041780081cf5100bf
:1051800001003a00040178000304e000f9ff3a004e
:105190000200780000000600e600400011017800df
:1051a00005002800850261006f0161008208780017
:1051b000020032001200200011003700a001900010
:1051c000120020000300e0000d003a009001900062
:1051d0000300e0000a003a001000e00008003a0076
:1051e000360037006403400096087800800178009c
:1051f000530b780090097800040878007001510082
:10520000110278000400e000f6ff320013003700be
:1052100064024000140378004f33de0083814100b4
:105220008308730080017800d3037800cf3bde0051
:105230001403780006034300068a73001302780003
:1052400004024200100378004f33de00860972002a
:1052500090017800038841000201e9009101780083
:10526000ef8f5100eaff3600100037008001780010
:10527000530378004f33dd001002d100040873009f
:105280006402400094037800cf3bdd001303d1009b
:1052900086897300110378004f33dd009401d1003b
:1052a000030a73009108d1000201e800910178001f
:1052b000ff8f5100edff3e00ef8861009188720082
:1052c0000200780000000600e500600003003200e4
:1052d0001002200090618800000006007800600045
:1052e00002003200200220009061880000000600c9
:1052f000889fbe008a1f780000047800c8009000d4
:10530000680190000000eb00828f50003c003900e3
:10531000180078002200290002016000e20f51000d
:1053200007003200012024000000e00001003d00e1
:1053300001202000008c70000080eb00300037005e
:105340000200260002006000820f500009003a00af
:1053500038009000808f5000060039000800780067
:10536000c2f70700800078000080eb000100e00039
:1053700023003a001805780000c0200000006500f6
:1053800018003a00a80490006002200008004000c5
:10539000808f540013003a0000202000fb0a070011
:1053a000200498000000e00005003a00290498005d
:1053b000490498008904e80039049800080037007f
:1053c0000a60a0000a0c7800400498000120200028
:1053d0008080400031049800400c9800500c9800e8
:1053e00094030700280090005004980038009000b3
:1053f0006004980000002600180c70000000eb000c
:105400004f0578004f04be0000000600fc874700ef
:10541000889fbe008a9fbe008c9fbe008e1f7800b2
:105420000006780080c5b30080cf50000a0032002b
:105430007740400080cf50000a00320069404000b1
:1054400080cf50000b00320090f6210080bf9f00fb
:10545000ae0020000a00370082f5210082bf9f00c5
:105460000600370093f6210083bf9f008e002000c6
:105470000300370094f6210084bf9f000e01200036
:105480003c02be002c03be000605be000404be00a4
:1054900040c6b30080cf500003003200654040009a
:1054a00080cf50000b003a00e00f5200e08f5a000e
:1054b000e00f5b00e08f5b0006003d006000b8007d
:1054c0006011b80004045000858458000605590096
:1054d00087855900e80f5700040032004000200083
:1054e000f00f570038003a0001003700300020006c
:1054f000e00f5400e08f5c00e00f5d00e08f5d0086
:1055000004003a00dc0890008d0120000100e0005a
:10551000060032008e00e900888060008fba970094
:10552000e5c07800f1ef9f007d0120008000780049
:105530008100e900050033008b05d1000a85d30006
:105540008984d3000884d300f9ff3700089ebe0089
:105550000a96be00120037008d06e9008e00e900b1
:10556000848060000fb99700e2c1780082fd2f00af
:105570000f01410003f17e00800078008100e90006
:10558000050033008783d1000683d3008582d300d2
:105590000482d300f9ff3700049ebe000696be00c9
:1055a0003c02be002c03be00e00f5200e08f5a0008
:1055b000e00f5b00e08f5b008b0034000d00e0002b
:1055c000e5ff3c00880037002c60900081c6b300e6
